:020000040800F2
:1000000048040020010100087D1000087510000858
:100010007910000825020008911000080000000077
:100020000000000000000000000000008510000833
:100030002902000800000000811000088910000853
:100040001B0100081B0100081B0100081B01000820
:100050001B0100081B0100081B0100081B01000810
:100060001B0100081B0100081B0100081B01000800
:100070001B0100081B0100081B0100081B010008F0
:100080001B0100081B0100081B0100081B010008E0
:100090001B0100081B0100081B0100081B010008D0
:1000A0001B0100081B0100081B0100081B010008C0
:1000B0001B0100081B0100081B0100081B010008B0
:1000C0001B0100081B0100081B0100081B010008A0
:1000D0001B0100081B0100081B0100081B01000890
:1000E0001B0100081B0100081B010008DFF80CD0F1
:1000F00000F02AF800480047951000084804002046
:100100000648804706480047FEE7FEE7FEE7FEE7B1
:10011000FEE7FEE7FEE7FEE7FEE7FEE78D100008DC
:10012000ED000008D2B201E000F8012B491EFBD21D
:1001300070470022F6E710B513460A4604461946F2
:10014000FFF7F0FF204610BD064C074D06E0E068C3
:1001500040F0010394E8070098471034AC42F6D30E
:10016000FFF7C8FF0012000820120008B0B582B0E7
:1001700004460020019021688A68D2074FD1886820
:1001800040F00100886040F20800C2F20000006800
:100190004DF68361C4F21B31A0FB0101880C019074
:1001A0000198A0B1019801380190019878B10198A7
:1001B00001380190019850B10198013801900198DF
:1001C00028B101980138019001980028EAD100F087
:1001D00059FB21688968C9071CD1054603E000BFA7
:1001E0008068C0071AD100F04DFB411B206803292D
:1001F000F6D38168C907F3D1A06A40F01000A0626D
:10020000E06A40F00100E062002084F82400012050
:1002100002B0B0BD002002B0B0BD00BF002002B0EF
:10022000B0BD0000FEE700007047000010B581B0CF
:100230000022009290F82420012A03D102210846CE
:1002400001B010BD4B680122062B80F8242017D87E
:10025000D0F800C003EB83035A1F1F23DCF834E0FF
:1002600003FA02F40B682EEA040403FA02F22243B2
:10027000CCF83420092B03EB430219D936E000BF38
:10028000D0F800C00C2B03EB83021DD8233A1F23A8
:10029000DCF830E003FA02F40B682EEA040403FAF7
:1002A00002F22243CCF83020092B03EB43021DD885
:1002B000DCF81030072489689440A3439140194327
:1002C000CCF81010002130E0413A1F23DCF82CE07C
:1002D00003FA02F40B682EEA040403FA02F2224342
:1002E000CCF82C20092B03EB4302E1D9DCF80CE01D
:1002F0001E3A0724896894402EEA0404914023F0B2
:1003000001022143102ACCF80C100DD142F2084111
:10031000C4F20101A1F1080294450DD0816A41F0B7
:1003200020018162012100E00021002280F82420C8
:10033000084601B010BD00BF0A68120230D40A6836
:10034000102B42F400020A602CD140F20801C2F2E4
:10035000000109684DF68362C4F21B32A1FB021250
:10036000910C01EB8101490000910099E1B10099E4
:10037000013900910099C9B10099013900910099A2
:10038000B1B1009901390091009999B100990139F1
:100390000091009900294FF00001E8D1C5E700BFA6
:1003A0000021C2E70021C0E70021BEE70021BCE731
:1003B0000021BAE70021B8E70068C06C7047000070
:1003C000B0B5002800F0A8800446806A20B12168FA
:1003D0008868C0070BD114E00020E06284F8240094
:1003E000204600F09BF821688868C00709D088681B
:1003F00020F00100886000F045FA21688A68D20781
:1004000026D1A06AC0063AD4A06A41F202129043F3
:100410000230A062E069D4E9013240EA030C531EC5
:10042000B3FA83F35D091346B2F5807F18BF2B0240
:10043000207D257B01284CEA450030D135B3A56AE3
:1004400045F02005A562E56A45F00105E56226E074
:10045000054602E08868C007D3D000F013FA401BBD
:1004600021680328F6D38868C007F3D0A06A40F05B
:100470001000A062E06A40F00100E062A06AA06A99
:1004800040F01000A0620120B0BD00BFD4F818C039
:100490004EF60005CFF6FF7505EB4C352B434D6846
:1004A000B2F5807F25F4694543EA05034B608B680C
:1004B0004FF2FD75CFF6E17503EA050343EA000349
:1004C0008B6001D0012A07D122690023CFF6F07397
:1004D00003EB025201E000BF0022CB6A23F4700359
:1004E0001A43CA62896840F6FE62CFF61F72114055
:1004F000814207D10020E062A16A012262F301017A
:10050000A162B0BDA06A40F0100020F00200A0621D
:10051000E06A40F00100E0620120B0BD80B586B025
:10052000014640F60000C4F20100096800F5E052FF
:1005300091424FF00001CDE9041101D006B080BD19
:1005400041F21801C4F202010A6842F400720A6022
:100550000A6802F400720192019A0A6842F00402E9
:100560000A60096801F004010191019901210291D9
:100570000321039102A900F069F806B080BD0000D4
:1005800010B5044690F82400012804BF022010BDD5
:10059000012084F824002046FFF7E8FD20B1002167
:1005A00084F8241010BD00BF42F2044C2068A16AF8
:1005B000C4F2010C40F2013291430CF57F7201F557
:1005C00080719042A16233D0A16A21F48011A162AE
:1005D0004168490504D5A16A012363F30D31A16285
:1005E000A16A0023C9044FF0000144BFE16A21F071
:1005F0000601E1626FF0020184F824300160816835
:1006000001F46021B1F5602F06D190420AD1DCF8E7
:10061000001011F4702F05D0816841F480118160C1
:10062000002010BD816841F4A0018160002010BD50
:10063000DCF8001011F4702FC6D0A16A41F48011CB
:10064000A162DCF800104905C5D4C9E72DE9F04FD7
:1006500082B00E68002E00F0038141F20042C4F225
:100660000102042340F2004E904208BF03234FF6DC
:10067000FF7CC4F2010E009300240123C1F2100C90
:100680004FF0000A4FF0000949E000BF012704F0D5
:100690000C030F229A402BEA020207FA03F34FEAF7
:1006A0009A051A4346F82520D1F804B040F20C45CB
:1006B0005FEACB22DEF8082054BF22EA080242EAB1
:1006C0000802C4F20105CEF808202A685FEA8B23ED
:1006D00054BF22EA080242EA08022A605FEA8B332A
:1006E000DEF8042054BF22EA080242EA08025FEA68
:1006F000CB33CEF80420DEF800204FF0010354BFC6
:1007000022EA080242EA0802CEF800200E680AF146
:10071000010A36FA0AF204F1040400F0A18003FA97
:100720000AF816EA080FF1D04E68664512DC122E60
:1007300056D8DFE806F0350B454955555555555502
:10074000555555555555554D510000BFD1F80C9094
:1007500046E000BF4FF6FF72C1F2210296420FDC65
:100760000022C1F2110296421AD00022C1F21202F6
:10077000964215D00022C1F22102964210D02FE0FD
:100780000022C1F2220296420AD00022C1F23102B6
:10079000964205D00022C1F23202964220D100BF1B
:1007A0008A684AB1012A14BFC0F81480C0F81080CA
:1007B0004FF0080914E000BF4FF0040910E000BF3B
:1007C000CA6802F108090BE04FF0000908E000BF19
:1007D000CA6802F1040903E0CA6802F10C0900BF0B
:1007E00022460646BAF1080F24BF203A043637687D
:1007F0000F25954027EA050509FA02F22A433260DF
:10080000CA79D2067FF582AF41F21803C4F202031F
:100810001A68AEF57E7642F001021A601A6802F09C
:1008200001020192019A2AF0030256F802B040F642
:100830000002C4F20102904210D040F60042C4F21D
:10084000010290423FF422AF41F20002C4F20102E1
:10085000009F904208BF022719E700BF002716E754
:1008600002B0BDE8F08F0000C26802EA01039143C4
:1008700041EA034101617047002A08BF0904016190
:100880007047000040F24400C2F200000068704768
:1008900040F2000040F24401C2F20000C2F2000146
:1008A00000780A68104408607047000080B542F282
:1008B0000000C4F20200016841F010010160032051
:1008C00000F072F80F2000F005F800F027F8002083
:1008D00080BD000070B540F20006C2F2000640F292
:1008E00008013278C2F200014FF47A730968B3FB51
:1008F000F2F20446B1FBF2F1084600F0A5FB0F2C22
:100900004FF0010508D838B94FF0FF3021460022DA
:10091000002500F01DF87460284670BD82B041F2D9
:100920001800C4F20200016841F001010160016891
:1009300001F0010101910199416841F0805141604C
:10094000406800F080500090009802B070470000AE
:1009500010B54EF60C5CCEF2000CDCF80030C3F3A0
:10096000022E8EF00704042C28BF0424BEF10303DA
:100970004FF0FF3E0EFA04F438BF0023A143994024
:100980000EFA03F39A43114300F00F0200F16043A3
:100990000901043A03F564436244002848BF02F1A8
:1009A0000C03197010BD00004EF60C51CEF2000180
:1009B0000A684FF6FF031A4060F30A2242F0806093
:1009C00040F0FD70086070472DE9F04182B00446A8
:1009D000007841F21C06C007C4F202064AD0306813
:1009E00010F0805808D1306840F080503060306896
:1009F00000F080500190019847F20007C4F2000710
:100A00003868C00512D4386840F480703860FFF749
:100A100039FF05463868C00508D4FFF733FF401B8F
:100A20006428F7D9032002B0BDE8F081706810F4A3
:100A3000407012D0616801F4407188420DD0706836
:100A400040F24042C4F24222012320F4407113607C
:100A50000023C007136071602AD17068616820F4B8
:100A600040700843B8F1000F706003D1306820F087
:100A7000805030602068810707D556F8181CA2689E
:100A800021F44041114346F8181CC00604D400204C
:100A900002B0BDE8F08100BF56F8180CE16820F400
:100AA0008000084346F8180C002002B0BDE8F08131
:100AB000FFF7E8FE054641F2883700BF70688007FF
:100AC000CBD4FFF7DFFE401BB8424FF00300F5D94F
:100AD000EBE700002DE9F04381B0002800F08580AD
:100AE00042F20008C4F202080446D8F800000D469D
:100AF00000F0070088420CD2D8F8000020F0070070
:100B00002843C8F80000D8F8000000F00700A84209
:100B10006BD1206841F204098107C4F2020917D59C
:100B2000410705D5D9F8001041F4E061C9F800107B
:100B3000010705D5D9F8001041F46051C9F800103B
:100B4000D9F80010A26821F0F0011143C9F8001093
:100B5000C00741D1D8F8000000F00700A8420CD926
:100B6000D8F8000020F007002843C8F80000D8F8A3
:100B7000000000F00700A84237D12068410707D5E0
:100B8000D9F80010E26821F4E0611143C9F80010BF
:100B9000000708D5D9F80000216920F4605040EA28
:100BA000C100C9F80000D9F8002002F00C000828A4
:100BB00041F20020C0F27A0050D141F2EE13C2F3AC
:100BC0008341C0F60003595CD2033BD440F60010C9
:100BD000C0F23D00484341E0606802280AD0012885
:100BE0002AD159F8041C890308D4012001B0BDE8BA
:100BF000F08300BF59F8041C8901F6D5D9F800101C
:100C000021F003010843C9F80000FFF73BFE064648
:100C100041F28837D9F80000616800F00C00B0EBB1
:100C2000810F97D0FFF72EFE801BB842F2D9032028
:100C300001B0BDE8F08300BF59F8041C8907D4D582
:100C4000DCE700BFD9F8002041F2EC13C2F34042C8
:100C5000C0F600039A5C4843B0FBF2F0D9F80010EC
:100C600041F2DC12C1F30311C0F60002515C40F204
:100C7000080220FA01F140F20400C2F2000000680C
:100C8000C2F200021160FFF725FE002001B0BDE8AE
:100C9000F08300002DE9F04182B0002868D00446BE
:100CA000007841F20006C007C4F2020625D0706841
:100CB00000F00C0004281BD0706800F00C0008281D
:100CC00002D17068C00313D46068002800F0688106
:100CD000B0F5A02F00F07C81B0F5803F00F07C8162
:100CE000306820F480303060306820F4802076E175
:100CF0003068800301D56068D0B32078800718D5AC
:100D0000706810F00C0F07D0706800F00C00082815
:100D10006ED17068C0036BD43068800702D520693B
:100D2000012825D13068616920F0F80040EAC1004F
:100D30003060207800071FD42078400732D4E5695E
:100D400095B1706800F00C00082840F08F80012DEC
:100D50000ED07068216A00F480328A4208D1616A3C
:100D600000F47010884203D1002002B0BDE8F08189
:100D7000012002B0BDE8F081A069002862D0002007
:100D8000C4F242200121C0F88014FFF77BFD054624
:100D9000706A800700F18C80FFF774FD401B022809
:100DA000F6D92AE1F06910F0805808D1F06940F0D6
:100DB0008050F061F06900F080500090009847F298
:100DC0000007C4F200073868C00529D4386840F429
:100DD00080703860FFF756FD054600BF3868C005D3
:100DE0001ED4FFF74FFD401B6428F7D905E100BF73
:100DF0002069002840F20000C4F2422000F0828006
:100E000001210160FFF73EFD054600BF3068800705
:100E10003FF588AFFFF736FD401B0228F6D9ECE01E
:100E2000E068002800F08080052800F09780012805
:100E300000F09880306A20F001003062306A20F0C3
:100E4000040092E00020C4F242200021C0F8801487
:100E5000FFF718FD054600BF706A80077FF56CAF8D
:100E6000FFF710FD401B0228F6D9C6E00027C4F2A8
:100E7000422700203866FFF705FD022D05460BD1FD
:100E80003068800140F1BE80FFF7FCFC401B022867
:100E90004FF00300F4D968E7306880017FF564AF54
:100EA000FFF7F0FC401B02284FF00300F4D95CE789
:100EB00040F20800C2F20000006844F6D351C1F2CB
:100EC0006201A0FB0101480A019000BF00BF019828
:100ED000411E002801913FF42FAF00BF0198411E31
:100EE000002801913FF428AF00BF0198411E00285F
:100EF00001913FF421AF00BF0198411E00280191EC
:100F0000E4D119E700210160FFF7BCFC054600BFF2
:100F1000306880077FF50DAFFFF7B4FC401B022857
:100F20004FF00300F4D920E7306A20F0010030626E
:100F3000306A20F004003062FFF7A4FC054641F25D
:100F4000883700BF306A800720D5FFF79BFC401B25
:100F5000B8424FF00300F5D907E700BF306A40F010
:100F600004003062306A40F001003062FFF78AFC12
:100F7000054641F2883700BF306A800706D4FFF784
:100F800081FC401BB842F7D937E000BFB8F1000F31
:100F90007FF4D5AEF06920F08050F061CFE600BF5D
:100FA000306820F480303060306820F48020306079
:100FB000FFF768FC054600BF306880037FF59DAEF3
:100FC000FFF760FC401B64284FF00300F4D9CCE627
:100FD000306840F480203060306840F48030306009
:100FE000FFF750FC054600BF306880033FF585AE33
:100FF000FFF748FC401B6428F6D9032002B0BDE887
:10100000F08100BF206AB0F5803F05D17168A26809
:1010100021F40031114371607168626A21F4741126
:1010200011430843706001203866FFF72BFC04462B
:10103000306880013FF598AEFFF724FC001B0228C2
:101040004FF00300F4D990E6411E0020B0EB116F81
:101050001CBF012070474EF21002CEF20002516018
:101060004EF62351CEF20001F0230B700721906061
:1010700011607047FEE70000FEE70000FEE7000099
:101080007047000070470000FFF702BC7047000087
:10109000FEE7000094B0FFF709FC0AAC201D2421F4
:1010A000FFF747F802200A9001200E90102000253B
:1010B0000F9020460495CDE902551195FFF7EAFD02
:1010C00020B1EFF3108072B6FEE700BF0F20CDE92C
:1010D000050505A80021CDE907550995FFF7FAFC9C
:1010E00020B1EFF3108072B6FEE700BF02260025A4
:1010F00001A801960395FFF767FC28B1EFF3108074
:1011000072B600BFFEE700BF41F21800C4F2020051
:10111000016840F6000441F0040101600068C4F277
:10112000010400F004000A900A982046A021002241
:10113000A027FFF7A1FB0A9701270AA92046CDE9BE
:101140000B750D96FFF782FA40F21006C2F2000608
:1011500004F5E051304640F8041F4FF46021077356
:101160000575C161C0E901550761FFF729F928B18B
:10117000EFF3108072B600BFFEE700BF0020351D00
:10118000CDE90A070C900AA92846FFF74FF828B1C5
:10119000EFF3108072B600BFFEE700BF2846FFF7EE
:1011A000EFF900BF2846FFF707F9308020462021DD
:1011B000FFF75AFB20468021FFF756FBF2E702E0DB
:1011C00008C8121F08C1002AFAD1704770470020D2
:1011D00001E001C1121F002AFBD17047000000008E
:1011E00000000000010203040607080901020203CF
:1011F0000405060708090A0B0C0D0E0F101000005D
:10120000201200080000002010000000BE1100089D
:10121000301200081000002038040000CE11000831
:1012200001000000100000000024F4000000000095
:04000005080000ED02
:00000001FF
