:020000040800F2
:1000000018040020010100086108000859080008D0
:100010005D0800086D010008750800080000000078
:100020000000000000000000000000006908000857
:100030007101000800000000650800086D08000854
:100040001B0100081B0100081B0100081B01000820
:100050001B0100081B0100081B0100081B01000810
:100060001B0100081B0100081B0100081B01000800
:100070001B0100081B0100081B0100081B010008F0
:100080001B0100081B0100081B0100081B010008E0
:100090001B0100081B0100081B0100081B010008D0
:1000A0001B0100081B0100081B0100081B010008C0
:1000B0001B0100081B0100081B0100081B010008B0
:1000C0001B0100081B0100081B0100081B010008A0
:1000D0001B0100081B0100081B0100081B01000890
:1000E0001B0100081B0100081B010008DFF80CD0F1
:1000F00000F02AF80048004779080008180400209A
:100100000648804706480047FEE7FEE7FEE7FEE7B1
:10011000FEE7FEE7FEE7FEE7FEE7FEE77108000800
:10012000ED000008D2B201E000F8012B491EFBD21D
:1001300070470022F6E710B513460A4604461946F2
:10014000FFF7F0FF204610BD064C074D06E0E068C3
:1001500040F0010394E8070098471034AC42F6D30E
:10016000FFF7C8FF1009000830090008FEE700008B
:100170007047000040F21000C2F2000000687047B3
:1001800040F2000040F21001C2F20000C2F2000191
:1001900000780A68104408607047000080B542F299
:1001A0000000C4F20200016841F010010160032068
:1001B00000F072F80F2000F005F800F027F800209A
:1001C00080BD000070B540F20006C2F2000640F2A9
:1001D00008013278C2F200014FF47A730968B3FB68
:1001E000F2F20446B1FBF2F1084600F01FFB0F2CBF
:1001F0004FF0010508D838B94FF0FF3021460022F2
:10020000002500F01DF87460284670BD82B041F2F0
:100210001800C4F20200016841F0010101600168A8
:1002200001F0010101910199416841F08051416063
:10023000406800F080500090009802B070470000C5
:1002400010B54EF60C5CCEF2000CDCF80030C3F3B7
:10025000022E8EF00704042C28BF0424BEF10303F1
:100260004FF0FF3E0EFA04F438BF0023A14399403B
:100270000EFA03F39A43114300F00F0200F16043BA
:100280000901043A03F564436244002848BF02F1BF
:100290000C03197010BD00004EF60C51CEF2000197
:1002A0000A684FF6FF031A4060F30A2242F08060AA
:1002B00040F0FD70086070472DE9F04381B00028E0
:1002C00000F0858042F20008C4F202080446D8F823
:1002D00000000D4600F0070088420CD2D8F800005C
:1002E00020F007002843C8F80000D8F8000000F00C
:1002F0000700A8426BD1206841F204098107C4F2CB
:10030000020917D5410705D5D9F8001041F4E0617D
:10031000C9F80010010705D5D9F8001041F4605163
:10032000C9F80010D9F80010A26821F0F0011143BB
:10033000C9F80010C00741D1D8F8000000F007004C
:10034000A8420CD9D8F8000020F007002843C8F8CC
:100350000000D8F8000000F00700A84237D120685C
:10036000410707D5D9F80010E26821F4E061114394
:10037000C9F80010000708D5D9F80000216920F459
:10038000605040EAC100C9F80000D9F8002002F02E
:100390000C00082841F20020C0F27A0050D140F64B
:1003A000FE03C2F38341C0F60003595CD2033BD481
:1003B00040F60010C0F23D00484341E0606802286A
:1003C0000AD001282AD159F8041C890308D4012035
:1003D00001B0BDE8F08300BF59F8041C8901F6D5CF
:1003E000D9F8001021F003010843C9F80000FFF715
:1003F000C1FE064641F28837D9F80000616800F076
:100400000C00B0EB810F97D0FFF7B4FE801BB84211
:10041000F2D9032001B0BDE8F08300BF59F8041CF5
:100420008907D4D5DCE700BFD9F8002040F6FC03EB
:10043000C2F34042C0F600039A5C4843B0FBF2F0BE
:10044000D9F8001040F6EC02C1F30311C0F6000227
:10045000515C40F2080220FA01F140F20400C2F2BD
:1004600000000068C2F200021160FFF7ABFE00203E
:1004700001B0BDE8F08300002DE9F04182B0002812
:1004800068D00446007841F20006C007C4F20206B4
:1004900025D0706800F00C0004281BD0706800F0B4
:1004A0000C00082802D17068C00313D460680028CB
:1004B00000F06881B0F5A02F00F07C81B0F5803F9E
:1004C00000F07C81306820F480303060306820F4A7
:1004D000802076E13068800301D56068D0B3207851
:1004E000800718D5706810F00C0F07D0706800F006
:1004F0000C0008286ED17068C0036BD43068800788
:1005000002D52069012825D13068616920F0F80002
:1005100040EAC1003060207800071FD420784007EF
:1005200032D4E56995B1706800F00C00082840F0FD
:100530008F80012D0ED07068216A00F480328A42CB
:1005400008D1616A00F47010884203D1002002B023
:10055000BDE8F081012002B0BDE8F081A06900286B
:1005600062D00020C4F242200121C0F88014FFF7BD
:1005700001FE0546706A800700F18C80FFF7FAFDE6
:10058000401B0228F6D92AE1F06910F0805808D102
:10059000F06940F08050F061F06900F08050009008
:1005A000009847F20007C4F200073868C00529D454
:1005B000386840F480703860FFF7DCFD054600BF06
:1005C0003868C0051ED4FFF7D5FD401B6428F7D955
:1005D00005E100BF2069002840F20000C4F242207B
:1005E00000F0828001210160FFF7C4FD054600BFD5
:1005F000306880073FF588AFFFF7BCFD401B02283D
:10060000F6D9ECE0E068002800F08080052800F0D2
:100610009780012800F09880306A20F00100306255
:10062000306A20F0040092E00020C4F24220002151
:10063000C0F88014FFF79EFD054600BF706A800772
:100640007FF56CAFFFF796FD401B0228F6D9C6E098
:100650000027C4F2422700203866FFF78BFD022DE9
:1006600005460BD13068800140F1BE80FFF782FD66
:10067000401B02284FF00300F4D968E7306880017E
:100680007FF564AFFFF776FD401B02284FF00300B3
:10069000F4D95CE740F20800C2F20000006844F6BA
:1006A000D351C1F26201A0FB0101480A019000BFD1
:1006B00000BF0198411E002801913FF42FAF00BFF9
:1006C0000198411E002801913FF428AF00BF019816
:1006D000411E002801913FF421AF00BF0198411E47
:1006E00000280191E4D119E700210160FFF742FDE4
:1006F000054600BF306880077FF50DAFFFF73AFD74
:10070000401B02284FF00300F4D920E7306A20F0A4
:1007100001003062306A20F004003062FFF72AFDE9
:10072000054641F2883700BF306A800720D5FFF7C1
:1007300021FD401BB8424FF00300F5D907E700BF89
:10074000306A40F004003062306A40F001003062EC
:10075000FFF710FD054641F2883700BF306A800779
:1007600006D4FFF707FD401BB842F7D937E000BFBA
:10077000B8F1000F7FF4D5AEF06920F08050F06141
:10078000CFE600BF306820F480303060306820F45D
:1007900080203060FFF7EEFC054600BF3068800324
:1007A0007FF59DAEFFF7E6FC401B64284FF0030089
:1007B000F4D9CCE6306840F480203060306840F4F2
:1007C00080303060FFF7D6FC054600BF30688003FC
:1007D0003FF585AEFFF7CEFC401B6428F6D9032019
:1007E00002B0BDE8F08100BF206AB0F5803F05D1BE
:1007F0007168A26821F40031114371607168626A06
:1008000021F4741111430843706001203866FFF72A
:10081000B1FC0446306880013FF598AEFFF7AAFCB2
:10082000001B02284FF00300F4D990E6411E00207F
:10083000B0EB116F1CBF012070474EF21002CEF2D8
:10084000000251604EF62351CEF20001F0230B70EE
:100850000721906011607047FEE70000FEE700008E
:10086000FEE700007047000070470000FFF788BCFB
:1008700070470000FEE7000090B0FFF78FFC06AC69
:10088000201D2421FFF755FC0220069001200A902C
:1008900010200B90002520460D95FFF7EDFD28B1A7
:1008A000EFF3108072B600BFFEE700BF0F20CDE966
:1008B000010501A80021CDE903550595FFF7FCFCD2
:1008C00020B1EFF3108072B6FEE700BFFEE702E052
:1008D00008C8121F08C1002AFAD1704770470020CB
:1008E00001E001C1121F002AFBD170470000000087
:1008F00000000000010203040607080901020203C8
:100900000405060708090A0B0C0D0E0F1010000055
:10091000300900080000002010000000CE08000888
:10092000400900081000002008040000DE0800084C
:1009300001000000100000000024F400000000008E
:04000005080000ED02
:00000001FF
