:020000040800F2
:10000000B0040020010100088519000881120008D1
:100010008119000849010008991900080000000032
:100020000000000000000000000000008D19000822
:100030004D0100080000000089190008911900080E
:100040001B0100081B0100081B0100081B01000820
:100050001B0100081B0100081B0100081B01000810
:100060001B0100081B0100081B0100081B01000800
:100070001B0100081B0100081B0100081B010008F0
:100080001B0100081B0100081B0100081B010008E0
:100090001B0100081B0100081B0100081B010008D0
:1000A0001B0100081B0100081B0100081B010008C0
:1000B0001B0100081B0100081B0100081B010008B0
:1000C0001B0100081B0100081B0100081B010008A0
:1000D0001B0100081B0100081B0100081B01000890
:1000E0001B0100081B0100081B010008DFF80CD0F1
:1000F00000F018F800480047BD190008B0040020BF
:100100000648804706480047FEE7FEE7FEE7FEE7B1
:10011000FEE7FEE7FEE7FEE7FEE7FEE795190008CB
:10012000ED000008064C074D06E0E06840F00103D2
:1001300094E8070098471034AC42F6D3FFF7DAFF93
:10014000101B0008301B0008FEE70000704700008D
:10015000EFF3108072B600BFFEE70000B0B50446B2
:1001600000F01EF9054640F20400C2F200000078DB
:10017000611C18BF044400BF00F012F9401BA042EC
:10018000FAD3B0BD2DE9F04F82B00E68002E00F01A
:10019000038141F20042C4F20102042340F2004E06
:1001A000904208BF03234FF6FF7CC4F2010E009378
:1001B00000240123C1F2100C4FF0000A4FF0000997
:1001C00049E000BF012704F00C030F229A402BEAFC
:1001D000020207FA03F34FEA9A051A4346F825206C
:1001E000D1F804B040F20C455FEACB22DEF80820DB
:1001F00054BF22EA080242EA0802C4F20105CEF81E
:1002000008202A685FEA8B2354BF22EA080242EAE8
:1002100008022A605FEA8B33DEF8042054BF22EA2A
:10022000080242EA08025FEACB33CEF80420DEF887
:1002300000204FF0010354BF22EA080242EA0802FC
:10024000CEF800200E680AF1010A36FA0AF204F12B
:10025000040400F0A18003FA0AF816EA080FF1D0AE
:100260004E68664512DC122E56D8DFE806F0350BD4
:100270004549555555555555555555555555554D52
:10028000510000BFD1F80C9046E000BF4FF6FF725E
:10029000C1F2210296420FDC0022C1F21102964205
:1002A0001AD00022C1F21202964215D00022C1F2E9
:1002B0002102964210D02FE00022C1F22202964283
:1002C0000AD00022C1F23102964205D00022C1F2CA
:1002D0003202964220D100BF8A684AB1012A14BF77
:1002E000C0F81480C0F810804FF0080914E000BF77
:1002F0004FF0040910E000BFCA6802F108090BE0E2
:100300004FF0000908E000BFCA6802F1040903E0E9
:10031000CA6802F10C0900BF22460646BAF1080F6E
:1003200024BF203A043637680F25954027EA050593
:1003300009FA02F22A433260CA79D2067FF582AF07
:1003400041F21803C4F202031A68AEF57E7642F059
:1003500001021A601A6802F001020192019A2AF061
:10036000030256F802B040F60002C4F201029042C5
:1003700010D040F60042C4F2010290423FF422AF96
:1003800041F20002C4F20102009F904208BF02271E
:1003900019E700BF002716E702B0BDE8F08F0000A4
:1003A00040F2AC00C2F200000068704770B5B8B30C
:1003B000044690F83D0028B9002084F83C0020460F
:1003C00000F09AF9242084F83D002068016821F0AB
:1003D00001010160016841F400410160016821F4FC
:1003E0000041016000F04AFB48F28041C0F21E016A
:1003F00040F60013D4F804E088424FF00001C0F248
:100400003D0348F2A16C4FF0000238BF0121984231
:10041000C0F2010C38BF0122E64538BF0A460AB1D6
:10042000012070BD4DF68361C4F21B31A0FB0112A7
:100430002168950C4B684FF4967623F03F0343EA0E
:100440009243754344F6D3564B60C1F262060B6A81
:10045000A5FB0656B50923F03F03E64538BF950CCA
:100460006A1C1A430A62CA6948F2A0664CF6FF7316
:10047000C0F20106B64522EA03020BD801384FEA62
:100480004E03B0FBF3F001306FF31F30042898BF28
:1004900004201EE0A368013863B119230EFB03F3A7
:1004A000B0FBF3F001306FF31F3078B100F58040FE
:1004B00008E000BF0EEB4E03B0FBF3F001306FF32A
:1004C0001F3028B100F5004003E000BF012000E02C
:1004D00001201043C8610868D4E9072320F0C00058
:1004E000104318430860886848F2FF3204F10C0694
:1004F00090434CCE18431043A5698860C86820F02B
:10050000FF0030432843C860086840F001000860DD
:1005100000202021206484F83D10206384F83E00F0
:1005200070BD00002DE9F04383B01E461746894692
:100530000446FFF735FF94F83D10202920D10546E9
:10054000206800BF8169890716D5FFF729FF411B85
:1005500020681A29F6D381698907F3D50020202164
:10056000206384F83D1084F83E00216C41F02001A6
:10057000216484F83C0003E094F83C10012903D185
:10058000022003B0BDE8F083012184F83C1001682B
:10059000C90703D1016841F001010160016840F21F
:1005A000020821F400610160212184F83D1010212E
:1005B00084F83E100021216467626685618DC0F277
:1005C00001082185A8F10211E162E16A0A9E11F594
:1005D000803F18BF01291DD1016841F4807101607D
:1005E00020464FF0011100223346009500F0AAFE8C
:1005F00050B120680068C00544BF4FF4007020640B
:10060000012003B0BDE8F0832069B0F5804F07D129
:10061000FE2015E00829DFD0216B1229DCD0DFE7AE
:10062000062000EAD9102168F030086108F10601BF
:10063000204632462B4600F06FFF0028E0D1FF2015
:10064000216800EA090008612046414632462B46EF
:1006500000F062FF0028D3D1002002902068416999
:10066000029180690290029806E000BF2046314660
:100670002A4600F007FE18BB208D68B3204631469D
:100680002A4600F0B9FFD8B9606A2168024612F81C
:10069000013B0B616262628D013A6285228D531EBD
:1006A00023854F697F07E1D51B04DFD043780230F3
:1006B0000B616062608D01386085901E2085D5E7F2
:1006C000206C04289CD12068016841F4007101600D
:1006D000012003B0BDE8F0832068016841F4007197
:1006E0000160202084F83D00002084F83E0084F85A
:1006F0003C0003B0BDE8F08310B586B0006845F259
:100700000042C4F2000200219042049102D006B0DF
:1007100010BD00BF41F21804C4F20204206802A90F
:1007200040F008002060206800F008000190019867
:100730004FF440700290122003900320059040F681
:100740000040C4F20100FFF71DFD0420C4F20100C7
:10075000016841F0E06141F002010160606840F42D
:1007600000106060606800F400100190019806B00D
:1007700010BD000040F2040040F2AC01C2F20000E3
:10078000C2F2000100780A68104408607047000057
:1007900080B542F20000C4F20200016841F010018D
:1007A0000160032000F07AF80F2000F005F800F057
:1007B00027F8002080BD000070B540F20406C2F2A8
:1007C000000640F20C013278C2F200014FF47A7355
:1007D0000968B3FBF2F20446B1FBF2F1084600F0FF
:1007E0004FFB0F2C4FF0010508D838B94FF0FF3000
:1007F00021460022002500F025F87460284670BDCF
:1008000082B041F21800C4F202000168022241F0F5
:1008100001010160016801F0010101910199416844
:1008200041F080514160406800F080500090009895
:100830000420C4F20100016862F31A61016002B091
:100840007047000010B54EF60C5CCEF2000CDCF8E0
:100850000030C3F3022E8EF00704042C28BF0424BA
:10086000BEF103034FF0FF3E0EFA04F438BF00233D
:10087000A14399400EFA03F39A43114300F00F028B
:1008800000F160430901043A03F56443624400281F
:1008900048BF02F10C03197010BD00004EF60C5158
:1008A000CEF200010A684FF6FF031A4060F30A22F5
:1008B00042F0806040F0FD70086070472DE9F04321
:1008C00081B0002800F0858042F20008C4F20208DE
:1008D0000446D8F800000D4600F0070088420CD20C
:1008E000D8F8000020F007002843C8F80000D8F826
:1008F000000000F00700A8426BD1206841F2040913
:100900008107C4F2020917D5410705D5D9F80010AF
:1009100041F4E061C9F80010010705D5D9F80010CD
:1009200041F46051C9F80010D9F80010A26821F014
:10093000F0011143C9F80010C00741D1D8F80000F8
:1009400000F00700A8420CD9D8F8000020F00700FA
:100950002843C8F80000D8F8000000F00700A842BB
:1009600037D12068410707D5D9F80010E26821F493
:10097000E0611143C9F80010000708D5D9F800005C
:10098000216920F4605040EAC100C9F80000D9F89C
:10099000002002F00C00082841F20020C0F27A008A
:1009A00050D141F6FE23C2F38341C0F60003595CE7
:1009B000D2033BD440F60010C0F23D00484341E072
:1009C000606802280AD001282AD159F8041C89033A
:1009D00008D4012001B0BDE8F08300BF59F8041C21
:1009E0008901F6D5D9F8001021F003010843C9F8B0
:1009F0000000FFF7D5FC064641F28837D9F8000021
:100A0000616800F00C00B0EB810F97D0FFF7C8FCD5
:100A1000801BB842F2D9032001B0BDE8F08300BFCB
:100A200059F8041C8907D4D5DCE700BFD9F80020A9
:100A300041F6FC23C2F34042C0F600039A5C4843EF
:100A4000B0FBF2F0D9F8001041F6E422C1F3031133
:100A5000C0F60002515C40F20C0220FA01F140F2B3
:100A60000800C2F200000068C2F200021160FFF745
:100A7000A3FE002001B0BDE8F083000040F20C00AE
:100A800041F20401C2F20000C4F2020100680968E8
:100A900041F6F422C1F30221C0F60002515CC840C5
:100AA0007047000040F20C0041F20401C2F2000065
:100AB000C4F202010068096841F6F422C1F3C221C0
:100AC000C0F60002515CC840704700002DE9F041BB
:100AD00082B0002868D00446007841F20006C007C2
:100AE000C4F2020625D0706800F00C0004281BD068
:100AF000706800F00C00082802D17068C00313D49D
:100B00006068002800F06881B0F5A02F00F07C81BB
:100B1000B0F5803F00F07C81306820F48030306098
:100B2000306820F4802076E13068800301D5606869
:100B3000D0B32078800718D5706810F00C0F07D05C
:100B4000706800F00C0008286ED17068C0036BD488
:100B50003068800702D52069012825D13068616995
:100B600020F0F80040EAC1003060207800071FD470
:100B70002078400732D4E56995B1706800F00C0028
:100B8000082840F08F80012D0ED07068216A00F493
:100B900080328A4208D1616A00F47010884203D121
:100BA000002002B0BDE8F081012002B0BDE8F08174
:100BB000A069002862D00020C4F242200121C0F8C0
:100BC0008014FFF7EDFB0546706A800700F18C800A
:100BD000FFF7E6FB401B0228F6D92AE1F06910F086
:100BE000805808D1F06940F08050F061F06900F061
:100BF00080500090009847F20007C4F20007386860
:100C0000C00529D4386840F480703860FFF7C8FB0D
:100C1000054600BF3868C0051ED4FFF7C1FB401B66
:100C20006428F7D905E100BF2069002840F20000E0
:100C3000C4F2422000F0828001210160FFF7B0FB86
:100C4000054600BF306880073FF588AFFFF7A8FB77
:100C5000401B0228F6D9ECE0E068002800F0808014
:100C6000052800F09780012800F09880306A20F075
:100C700001003062306A20F0040092E00020C4F2EB
:100C800042200021C0F88014FFF78AFB054600BF10
:100C9000706A80077FF56CAFFFF782FB401B02286C
:100CA000F6D9C6E00027C4F2422700203866FFF7D5
:100CB00077FB022D05460BD13068800140F1BE80E4
:100CC000FFF76EFB401B02284FF00300F4D968E7E2
:100CD000306880017FF564AFFFF762FB401B02289C
:100CE0004FF00300F4D95CE740F20C00C2F20000C0
:100CF000006844F6D351C1F26201A0FB0101480A29
:100D0000019000BF00BF0198411E002801913FF4EF
:100D10002FAF00BF0198411E002801913FF428AF7A
:100D200000BF0198411E002801913FF421AF00BF90
:100D30000198411E00280191E4D119E700210160CA
:100D4000FFF72EFB054600BF306880077FF50DAF2B
:100D5000FFF726FB401B02284FF00300F4D920E7E1
:100D6000306A20F001003062306A20F00400306206
:100D7000FFF716FB054641F2883700BF306A80074F
:100D800020D5FFF70DFB401BB8424FF00300F5D90B
:100D900007E700BF306A40F004003062306A40F07C
:100DA00001003062FFF7FCFA054641F2883700BFC8
:100DB000306A800706D4FFF7F3FA401BB842F7D930
:100DC00037E000BFB8F1000F7FF4D5AEF06920F036
:100DD0008050F061CFE600BF306820F48030306092
:100DE000306820F480203060FFF7DAFA054600BF53
:100DF000306880037FF59DAEFFF7D2FA401B642870
:100E00004FF00300F4D9CCE6306840F48020306025
:100E1000306840F480303060FFF7C2FA054600BF0A
:100E2000306880033FF585AEFFF7BAFA401B6428AF
:100E3000F6D9032002B0BDE8F08100BF206AB0F50A
:100E4000803F05D17168A26821F4003111437160BF
:100E50007168626A21F474111143084370600120C3
:100E60003866FFF79DFA0446306880013FF598AE7A
:100E7000FFF796FA001B02284FF00300F4D990E622
:100E8000411E0020B0EB116F1CBF012070474EF2D5
:100E90001002CEF2000251604EF62351CEF2000154
:100EA000F0230B700721906011607047002804BF89
:100EB0000120704710B5044690F8410028B9002081
:100EC00084F84000204600F063F8242084F84100B4
:100ED0002068D4E90212C36823F40053C360036995
:100EE00023F440531A430261D4E904231143C26836
:100EF000194341F20C639A431143C1604169A269ED
:100F000021F44071114343F60002C4F20102904201
:100F1000416103D0FFF7B2FD02E000BFFFF7C2FD61
:100F20006268192148439100B0FBF1F048F21F516B
:100F3000C5F2EB11A0FB01235A094FF69C73C0F6D2
:100F4000FF7302FB0300322303EB0010A0FB01013F
:100F5000F02303EA5113206803EB0212C1F343119B
:100F600011448160016921F490410161416921F0DE
:100F70002A014161C16841F40051C1600020202173
:100F8000606484F8411084F84210606310BD000072
:100F900070B586B040F60004C4F201040068A4F500
:100FA000444100268842049602D006B070BD00BFBE
:100FB00041F21800C4F20200416802AD41F4003170
:100FC0004160416801F4003101910199016841F0EB
:100FD000040101600068294600F0040001900198B6
:100FE0000420029002200390032005902046FFF782
:100FF000C9F80820CDE90206204629460496FFF7E5
:10100000C1F806B070BD00002DE9F04381B0044680
:1010100090F84100202840F0B180884600294FF028
:10102000010000F0D6801646002A00F0D280002091
:10103000606421201D4684F84100FFF7B1F9A684C1
:10104000E684A1680646B1F5805F03D120690028D7
:1010500000F0988047464FF00008E18C2068002996
:1010600000F0968005F101090BE000BF47B317F8C7
:10107000011B4160E18C0139E184E18C002900F021
:10108000878001680906F1D4B9F1000F0AD0EDB1EB
:10109000FFF786F9801BA84218D820680168090666
:1010A000F6D5E3E701680906E0D4016809065CBFEC
:1010B00001685FEA0161D9D401680906F2D5D5E774
:1010C00038F8021B00276FF35F21D2E7206850E851
:1010D000030F216820F4D07041E80302BAB32068FE
:1010E00050E8030F216820F4D07041E8030272B386
:1010F000206850E8030F216820F4D07041E8030213
:101100002AB3206850E8030F216820F4D07041E82A
:101110000302002ADAD11AE0206850E8050F21689E
:1011200020F0010041E80502DAB1206850E8050F1F
:10113000216820F0010041E8050292B1206850E8E2
:10114000050F216820F0010041E805024AB120683E
:1011500050E8050F216820F0010041E80502002A4F
:10116000DAD1202084F8410084F84200002084F87D
:101170004000032001B0BDE8F08300BF022001B0B1
:10118000BDE8F0830027E18C206800297FF46AAF76
:101190000168490619D4FDB1691C0DD101684906E1
:1011A00013D4016849065CBF01685FEA41610CD451
:1011B00001684906F2D508E0FFF7F2F8801BA84263
:1011C0000AD8206800684006F6D5202084F841003F
:1011D000002001B0BDE8F083206850E8030F2168CB
:1011E00020F4D07041E80302002A3ED0206850E885
:1011F000030F216820F4D07041E80302AAB32068ED
:1012000050E8030F216820F4D07041E8030262B374
:10121000206850E8030F216820F4D07041E80302F1
:10122000002AD9D121E000BF206850E8050F2168CD
:1012300020F0010041E80502002A3FF492AF206847
:1012400050E8050F216820F0010041E80502002A5E
:101250003FF487AF206850E8050F216820F00100B7
:1012600041E80502002A3FF47CAF206850E8050FF2
:10127000216820F0010041E80502002AD4D170E77E
:10128000FEE7000070B50368044653F8140F4007EA
:1012900011D40E46481C29D086BB00BF18684005F3
:1012A00027D4FFF77DF8236853F8140F400739D58A
:1012B00018684007F2D5002070BD00BF18684007CD
:1012C000F9D41868400514D418684007F3D4186896
:1012D00040050ED418684007EDD41868400508D4BE
:1012E000186840074FF0000048BF70BD18684005FF
:1012F000E4D56FF480601860042014E0154603E024
:1013000053F8140F4007D6D418684005F1D4FFF7FE
:1013100047F8401B2368B042F2D958694007EFD420
:10132000202000E0202000212022216384F83D209D
:1013300084F83E10226C10432064012084F83C1095
:1013400070BD00002DE9F041054600681E461446B8
:1013500001F47F0201338FB242D0DDF81880B2F57C
:10136000803F40F0878040693840C01BB0FA80F071
:101370004009A04240F0C8804EB924E0406938409E
:10138000C01BB0FA80F04009A04240F0BD80FFF7DA
:1013900007F8A0EB08012868B142EFD9416939404C
:1013A000C91BB1FA81F14909A142E7D19BE000BF15
:1013B00040693840C01BB0FA80F04009A0424FF0AD
:1013C000000040F0A680FEF7EBFF28684169394035
:1013D000C91BB1FA81F14909A142E9D183E000BFFB
:1013E000B2F5803F24D100BF41693940C91BB1FA31
:1013F00081F14909A14240F0878041693940C91B08
:10140000B1FA81F14909A14240F07E804169394039
:10141000C91BB1FA81F14909A14275D1416939402D
:10142000C91BB1FA81F14909A142DDD06CE000BFCE
:1014300081693940C91BB1FA81F14909A14263D1DF
:1014400081693940C91BB1FA81F14909A1425BD1D7
:1014500081693940C91BB1FA81F14909A14253D1CF
:1014600081693940C91BB1FA81F14909A142DFD034
:101470004AE000BF80693840C01BB0FA80F04009E4
:10148000A04241D146B923E080693840C01BB0FA80
:1014900080F04009A0423BD1FEF782FFA0EB08019B
:1014A0002868B142F0D981693940C91BB1FA81F18C
:1014B0004909A142E8D116E080693840C01BB0FA62
:1014C00080F04009A0424FF0000018BFBDE8F08155
:1014D000FEF766FF286881693940C91BB1FA81F1BE
:1014E0004909A142E8D100202021286385F83D1058
:1014F00085F83E00296C41F02001296485F83C0004
:101500000120BDE8F08100BF0020BDE8F08100BFF0
:101510000020BDE8F0810000F0B581B0044600680D
:101520001D4643698FB203EA0701B94202D1002088
:1015300001B0F0BD41691646013201F4806125D049
:10154000002940D1CEB100BFFEF72AFF411B206821
:10155000B14203D941693940B9424BD1416939405F
:10156000B942E4D041694905EED52CE041693940E2
:10157000B942DCD04169490525D4FEF711FF206846
:1015800041693940B942F1D0202024E0D9B94169FC
:101590003940B942CBD04169490514D44169394039
:1015A000B942C4D0416949050DD441693940B942B5
:1015B000BDD04169490506D441693940B942B6D028
:1015C00041694905E3D5016841F4007101606FF498
:1015D00080614161042000212022216384F83D20A4
:1015E00084F83E10226C1043206484F83C100120E3
:1015F00001B0F0BD2020EEE770B50368044653F853
:10160000140F000611D40E46481C29D086BB00BF1B
:101610001868400527D4FEF7C3FE236853F8140F5B
:10162000000639D518680006F2D5002070BD00BF4D
:1016300018680006F9D41868400514D41868000624
:10164000F3D4186840050ED418680006EDD4186865
:10165000400508D4186800064FF0000048BF70BD70
:1016600018684005E4D56FF480601860042014E029
:10167000154603E053F8140F0006D6D41868400549
:10168000F1D4FEF78DFE401B2368B042F2D95869B1
:101690000006EFD4202000E020200021202221633A
:1016A00084F83D2084F83E10226C10432064012011
:1016B00084F83C1070BD000080B582B040F60C008C
:1016C000C1F61C00019040F210004FF4807CC2F281
:1016D000000001AA4E210423CDF800C0FEF722FF2E
:1016E0000120FEF73BFD02B080BD000070B582B066
:1016F0003220FEF733FD40F2100443F63C06C2F2FE
:101700000004C0F60C064FF4807501AA20464E2155
:10171000042301960095FEF705FF0520FEF71EFD48
:1017200001AA20464E21042301960095FEF7FAFEF9
:101730000120FEF713FD01AA20464E210423019645
:101740000095FEF7EFFE0A20FEF708FD42F62C009A
:10175000C0F60C00019001AA20464E2104230095FA
:10176000FEF7E0FE0A20FEF7F9FC42F62C00C8F670
:101770008C00019001AA20464E2104230095FEF71B
:10178000D1FE0120FEF7EAFC40F60C00C8F68C0002
:10179000019001AA20464E2104230095FEF7C2FEC7
:1017A0000120FEF7DBFC40F60C00C1F61C000190A6
:1017B00001AA20464E2104230095FEF7B3FE012026
:1017C000FEF7CCFC40F60C00C6F66C00019001AAB6
:1017D00020464E2104230095FEF7A4FE0120FEF7CB
:1017E000BDFC40F60C00CCF6CC00019001AA2046CE
:1017F0004E2104230095FEF795FE0120FEF7AEFC76
:1018000002B070BD80B582B001EB801000F07001B5
:10181000000101F18C0288318DF8051000F10C01F6
:1018200008308DF8070040F210008DF804208DF884
:1018300006104FF4807CC2F2000001AA4E2104235E
:10184000CDF800C0FEF76EFE02B080BDF0B583B0EB
:10185000017821B340F21004461E4FF48077C2F2A3
:10186000000402AD21F00F00090100F10D02093062
:101870008DF8090001F10D008DF80A0001F1090051
:101880008DF808208DF80B0020464E212A460423AF
:101890000097FEF747FEB17801360029E2D101201A
:1018A000FEF75CFC03B0F0BD81B041F21800C4F259
:1018B0000200016841F010010160016801F01001AF
:1018C00000910099016841F020010160016801F078
:1018D000200100910099016841F004010160016854
:1018E00001F0040100910099016841F008010160D4
:1018F000006800F008000090009801B070470000F8
:1019000080B540F2100045F20041C2F20000C4F27E
:10191000000148F2A06200234FF4804CC0F20102A3
:1019200080E80E00C0E9033CC0E90533C0E9073395
:10193000FEF73CFD002808BF80BDBDE88040FEF7F3
:1019400007BC000080B540F2640044F20041C2F2DE
:101950000000C4F2000100234FF00C0C4FF4E13200
:1019600080E80E00C0E90333C0E905C3C361FFF797
:101970009DFA002808BF80BDBDE88040FEF7E8BBA7
:10198000FEE70000FEE7000070470000704700001F
:10199000FEF7F0BE70470000FEE7000080B582B0A1
:1019A000019040F26400C2F2000001A901224FF050
:1019B000FF33FFF729FB019802B080BD90B0FEF71E
:1019C000E7FE00240120CDE90B44CDE9094406904F
:1019D0000A904FF4E0104FF4803102250F9006A8D2
:1019E000CDE90714CDE90D51FFF770F820B1EFF301
:1019F000108072B6FEE700BF0F20CDE901054FF45D
:101A00008060CDE9040401A802210394FEF756FF8B
:101A100020B1EFF3108072B6FEE700BFFFF744FF7E
:101A2000FFF76EFFFFF78EFF11A000F049F81E20B0
:101A3000FEF794FBFFF75AFE11A415A50020022122
:101A4000FFF7E0FE2046FFF701FF01200121FFF72D
:101A5000D9FE2846FFF7FAFE41F28830FEF77EFBFA
:101A6000FFF72AFE41F28830FEF778FBE6E700BF79
:101A70004C43443136303220493243200D000000BF
:101A800048656C6C6F20576F726C64210000000019
:101A90002D2D44796C616E204B75616E2D2D0000EB
:101AA00002E008C8121F08C1002AFAD17047704727
:101AB000002001E001C1121F002AFBD17047000085
:101AC00010B5044601E0FFF769FF14F8010B044963
:101AD0000028F8D1BDE810400A20FFF75FBF0000E2
:101AE00000000020000000000000000001020304CC
:101AF00006070809000000000102030401020203B6
:101B00000405060708090A0B0C0D0E0F1010000043
:101B1000301B00080000002010000000A01A000880
:101B2000401B000810000020A0040000B01A0008AC
:101B30000000000001000000100000000024F4007C
:04000005080000ED02
:00000001FF
